{
  "_format": "hh-sol-artifact-1",
  "contractName": "MyToken",
  "sourceName": "contracts/Token.sol",
  "abi": [
    {
      "inputs": [],
      "stateMutability": "nonpayable",
      "type": "constructor"
    },
    {
      "anonymous": false,
      "inputs": [
        {
          "indexed": false,
          "internalType": "uint256",
          "name": "price",
          "type": "uint256"
        }
      ],
      "name": "Price",
      "type": "event"
    },
    {
      "anonymous": false,
      "inputs": [
        {
          "indexed": false,
          "internalType": "address",
          "name": "buyer",
          "type": "address"
        },
        {
          "indexed": false,
          "internalType": "uint256",
          "name": "amount",
          "type": "uint256"
        }
      ],
      "name": "Purchase",
      "type": "event"
    },
    {
      "anonymous": false,
      "inputs": [
        {
          "indexed": false,
          "internalType": "address",
          "name": "seller",
          "type": "address"
        },
        {
          "indexed": false,
          "internalType": "uint256",
          "name": "amount",
          "type": "uint256"
        }
      ],
      "name": "Sell",
      "type": "event"
    },
    {
      "anonymous": false,
      "inputs": [
        {
          "indexed": false,
          "internalType": "address",
          "name": "sender",
          "type": "address"
        },
        {
          "indexed": false,
          "internalType": "address",
          "name": "receiver",
          "type": "address"
        },
        {
          "indexed": false,
          "internalType": "uint256",
          "name": "amount",
          "type": "uint256"
        }
      ],
      "name": "Transfer",
      "type": "event"
    },
    {
      "inputs": [
        {
          "internalType": "uint256",
          "name": "amount",
          "type": "uint256"
        }
      ],
      "name": "buyToken",
      "outputs": [
        {
          "internalType": "bool",
          "name": "",
          "type": "bool"
        }
      ],
      "stateMutability": "payable",
      "type": "function"
    },
    {
      "inputs": [
        {
          "internalType": "uint256",
          "name": "price",
          "type": "uint256"
        }
      ],
      "name": "changePrice",
      "outputs": [],
      "stateMutability": "nonpayable",
      "type": "function"
    },
    {
      "inputs": [],
      "name": "getBalance",
      "outputs": [
        {
          "internalType": "uint256",
          "name": "",
          "type": "uint256"
        }
      ],
      "stateMutability": "view",
      "type": "function"
    },
    {
      "inputs": [],
      "name": "name",
      "outputs": [
        {
          "internalType": "bytes32",
          "name": "",
          "type": "bytes32"
        }
      ],
      "stateMutability": "view",
      "type": "function"
    },
    {
      "inputs": [
        {
          "internalType": "uint256",
          "name": "amount",
          "type": "uint256"
        }
      ],
      "name": "sellToken",
      "outputs": [
        {
          "internalType": "bool",
          "name": "",
          "type": "bool"
        }
      ],
      "stateMutability": "nonpayable",
      "type": "function"
    },
    {
      "inputs": [],
      "name": "symbol",
      "outputs": [
        {
          "internalType": "bytes32",
          "name": "",
          "type": "bytes32"
        }
      ],
      "stateMutability": "view",
      "type": "function"
    },
    {
      "inputs": [],
      "name": "tokenPrice",
      "outputs": [
        {
          "internalType": "uint256",
          "name": "",
          "type": "uint256"
        }
      ],
      "stateMutability": "view",
      "type": "function"
    },
    {
      "inputs": [
        {
          "internalType": "address",
          "name": "recipient",
          "type": "address"
        },
        {
          "internalType": "uint256",
          "name": "amount",
          "type": "uint256"
        }
      ],
      "name": "transfer",
      "outputs": [
        {
          "internalType": "bool",
          "name": "",
          "type": "bool"
        }
      ],
      "stateMutability": "nonpayable",
      "type": "function"
    }
  ],
  "bytecode": "0x6080604052600160005573c0b843678e1e73c090de725ee1af6a9f728e2c47600160006101000a81548173ffffffffffffffffffffffffffffffffffffffff021916908373ffffffffffffffffffffffffffffffffffffffff1602179055507f506978656772616d0000000000000000000000000000000000000000000000006002557f50454d0000000000000000000000000000000000000000000000000000000000600355620f4240600555600060065560006007553480156100c357600080fd5b5033600460006101000a81548173ffffffffffffffffffffffffffffffffffffffff021916908373ffffffffffffffffffffffffffffffffffffffff160217905550612710600860003373ffffffffffffffffffffffffffffffffffffffff1673ffffffffffffffffffffffffffffffffffffffff16815260200190815260200160002081905550610fc78061015a6000396000f3fe60806040526004361061007b5760003560e01c80637ff9b5961161004e5780637ff9b5961461014357806395d89b411461016e578063a2b40d1914610199578063a9059cbb146101c25761007b565b806306fdde031461008057806312065fe0146100ab5780632397e4d7146100d65780632d296bf114610113575b600080fd5b34801561008c57600080fd5b506100956101ff565b6040516100a29190610b70565b60405180910390f35b3480156100b757600080fd5b506100c0610205565b6040516100cd9190610c4b565b60405180910390f35b3480156100e257600080fd5b506100fd60048036038101906100f8919061099c565b61024c565b60405161010a9190610b55565b60405180910390f35b61012d6004803603810190610128919061099c565b61042d565b60405161013a9190610b55565b60405180910390f35b34801561014f57600080fd5b50610158610640565b6040516101659190610c4b565b60405180910390f35b34801561017a57600080fd5b50610183610646565b6040516101909190610b70565b60405180910390f35b3480156101a557600080fd5b506101c060048036038101906101bb919061099c565b61064c565b005b3480156101ce57600080fd5b506101e960048036038101906101e4919061092f565b61077b565b6040516101f69190610b55565b60405180910390f35b60025481565b6000600860003373ffffffffffffffffffffffffffffffffffffffff1673ffffffffffffffffffffffffffffffffffffffff16815260200190815260200160002054905090565b600081600860003373ffffffffffffffffffffffffffffffffffffffff1673ffffffffffffffffffffffffffffffffffffffff1681526020019081526020016000205410156102d0576040517f08c379a00000000000000000000000000000000000000000000000000000000081526004016102c790610c2b565b60405180910390fd5b81600860003373ffffffffffffffffffffffffffffffffffffffff1673ffffffffffffffffffffffffffffffffffffffff168152602001908152602001600020600082825461031f9190610d50565b9250508190555081600760008282546103389190610d50565b92505081905550600073__$128d5852f545b9041a5b594ce72974405c$__63c0ba8f42600054856103699190610cf6565b336040518363ffffffff1660e01b8152600401610387929190610c66565b60206040518083038186803b15801561039f57600080fd5b505af41580156103b3573d6000803e3d6000fd5b505050506040513d601f19601f820116820180604052508101906103d7919061096f565b90508015610422577f5e5e995ce3133561afceaa51a9a154d5db228cd7525d34df5185582c18d3df093384604051610410929190610b2c565b60405180910390a16001915050610428565b60009150505b919050565b600080548261043c9190610cf6565b341161047d576040517f08c379a000000000000000000000000000000000000000000000000000000000815260040161047490610bcb565b60405180910390fd5b60008260005461048d9190610cf6565b346104989190610d50565b905082600860003373ffffffffffffffffffffffffffffffffffffffff1673ffffffffffffffffffffffffffffffffffffffff16815260200190815260200160002060008282546104e99190610ca0565b9250508190555082600760008282546105029190610ca0565b925050819055506001600681905550600081141561055d577f2499a5330ab0979cc612135e7883ebc3cd5c9f7a8508f042540c34723348f632338460405161054b929190610b2c565b60405180910390a1600191505061063b565b600073__$128d5852f545b9041a5b594ce72974405c$__63c0ba8f4283336040518363ffffffff1660e01b8152600401610598929190610c66565b60206040518083038186803b1580156105b057600080fd5b505af41580156105c4573d6000803e3d6000fd5b505050506040513d601f19601f820116820180604052508101906105e8919061096f565b90508015610634577f2499a5330ab0979cc612135e7883ebc3cd5c9f7a8508f042540c34723348f6323385604051610621929190610b2c565b60405180910390a160019250505061063b565b6000925050505b919050565b60005481565b60035481565b600460009054906101000a900473ffffffffffffffffffffffffffffffffffffffff1673ffffffffffffffffffffffffffffffffffffffff163373ffffffffffffffffffffffffffffffffffffffff16146106dc576040517f08c379a00000000000000000000000000000000000000000000000000000000081526004016106d390610bab565b60405180910390fd5b600160065414610721576040517f08c379a000000000000000000000000000000000000000000000000000000000815260040161071890610c0b565b60405180910390fd5b60005460026107309190610cf6565b8114610771576040517f08c379a000000000000000000000000000000000000000000000000000000000815260040161076890610b8b565b60405180910390fd5b8060008190555050565b600081600860003373ffffffffffffffffffffffffffffffffffffffff1673ffffffffffffffffffffffffffffffffffffffff1681526020019081526020016000205410156107ff576040517f08c379a00000000000000000000000000000000000000000000000000000000081526004016107f690610beb565b60405180910390fd5b81600860003373ffffffffffffffffffffffffffffffffffffffff1673ffffffffffffffffffffffffffffffffffffffff168152602001908152602001600020600082825461084e9190610d50565b9250508190555081600860008573ffffffffffffffffffffffffffffffffffffffff1673ffffffffffffffffffffffffffffffffffffffff16815260200190815260200160002060008282546108a49190610ca0565b925050819055507fddf252ad1be2c89b69c2b068fc378daa952ba7f163c4a11628f55a4df523b3ef3384846040516108de93929190610af5565b60405180910390a16001905092915050565b6000813590506108ff81610f4c565b92915050565b60008151905061091481610f63565b92915050565b60008135905061092981610f7a565b92915050565b6000806040838503121561094657610945610e05565b5b6000610954858286016108f0565b92505060206109658582860161091a565b9150509250929050565b60006020828403121561098557610984610e05565b5b600061099384828501610905565b91505092915050565b6000602082840312156109b2576109b1610e05565b5b60006109c08482850161091a565b91505092915050565b6109d281610d84565b82525050565b6109e181610d84565b82525050565b6109f081610d96565b82525050565b6109ff81610da2565b82525050565b6000610a12601783610c8f565b9150610a1d82610e0a565b602082019050919050565b6000610a35600c83610c8f565b9150610a4082610e33565b602082019050919050565b6000610a58602b83610c8f565b9150610a6382610e5c565b604082019050919050565b6000610a7b602883610c8f565b9150610a8682610eab565b604082019050919050565b6000610a9e601b83610c8f565b9150610aa982610efa565b602082019050919050565b6000610ac1601a83610c8f565b9150610acc82610f23565b602082019050919050565b610ae081610dcc565b82525050565b610aef81610dcc565b82525050565b6000606082019050610b0a60008301866109c9565b610b1760208301856109c9565b610b246040830184610ad7565b949350505050565b6000604082019050610b4160008301856109c9565b610b4e6020830184610ad7565b9392505050565b6000602082019050610b6a60008301846109e7565b92915050565b6000602082019050610b8560008301846109f6565b92915050565b60006020820190508181036000830152610ba481610a05565b9050919050565b60006020820190508181036000830152610bc481610a28565b9050919050565b60006020820190508181036000830152610be481610a4b565b9050919050565b60006020820190508181036000830152610c0481610a6e565b9050919050565b60006020820190508181036000830152610c2481610a91565b9050919050565b60006020820190508181036000830152610c4481610ab4565b9050919050565b6000602082019050610c606000830184610ad7565b92915050565b6000604082019050610c7b6000830185610ae6565b610c8860208301846109d8565b9392505050565b600082825260208201905092915050565b6000610cab82610dcc565b9150610cb683610dcc565b9250827fffffffffffffffffffffffffffffffffffffffffffffffffffffffffffffffff03821115610ceb57610cea610dd6565b5b828201905092915050565b6000610d0182610dcc565b9150610d0c83610dcc565b9250817fffffffffffffffffffffffffffffffffffffffffffffffffffffffffffffffff0483118215151615610d4557610d44610dd6565b5b828202905092915050565b6000610d5b82610dcc565b9150610d6683610dcc565b925082821015610d7957610d78610dd6565b5b828203905092915050565b6000610d8f82610dac565b9050919050565b60008115159050919050565b6000819050919050565b600073ffffffffffffffffffffffffffffffffffffffff82169050919050565b6000819050919050565b7f4e487b7100000000000000000000000000000000000000000000000000000000600052601160045260246000fd5b600080fd5b7f446f75626c652120446f75626c652120446f75626c6521000000000000000000600082015250565b7f77686f2061726520796f753f0000000000000000000000000000000000000000600082015250565b7f506c656173652070617920656e6f756768206d6f6e657920746f20627579207460008201527f686520746f6b656e203a28000000000000000000000000000000000000000000602082015250565b7f4e6f7420656e6f75676820746f6b656e732e20506c7a2062757920736f6d652060008201527f66697273746c792e000000000000000000000000000000000000000000000000602082015250565b7f546f6f20686967682c206e6f206f6e652077696c6c2062757921200000000000600082015250565b7f576f772c20636865636b20796f75722062616c616e6365203a29000000000000600082015250565b610f5581610d84565b8114610f6057600080fd5b50565b610f6c81610d96565b8114610f7757600080fd5b50565b610f8381610dcc565b8114610f8e57600080fd5b5056fea26469706673582212205d7f1d22ff6e77f37ea9c7449952e27150b24fe4201f612e263d700486373fa064736f6c63430008070033",
  "linkReferences": {
    "contracts/Token.sol": {
      "customLib": [
        {
          "length": 20,
          "start": 1181
        },
        {
          "length": 20,
          "start": 1723
        }
      ]
    }
  },
  "deployedLinkReferences": {
    "contracts/Token.sol": {
      "customLib": [
        {
          "length": 20,
          "start": 835
        },
        {
          "length": 20,
          "start": 1377
        }
      ]
    }
  }
}