{
  "_format": "hh-sol-artifact-1",
  "contractName": "Pixegram",
  "sourceName": "contracts/Init.sol",
  "abi": [
    {
      "inputs": [],
      "stateMutability": "nonpayable",
      "type": "constructor"
    },
    {
      "anonymous": false,
      "inputs": [
        {
          "indexed": true,
          "internalType": "address",
          "name": "owner",
          "type": "address"
        },
        {
          "indexed": true,
          "internalType": "address",
          "name": "approved",
          "type": "address"
        },
        {
          "indexed": true,
          "internalType": "uint256",
          "name": "tokenId",
          "type": "uint256"
        }
      ],
      "name": "Approval",
      "type": "event"
    },
    {
      "anonymous": false,
      "inputs": [
        {
          "indexed": true,
          "internalType": "address",
          "name": "owner",
          "type": "address"
        },
        {
          "indexed": true,
          "internalType": "address",
          "name": "operator",
          "type": "address"
        },
        {
          "indexed": false,
          "internalType": "bool",
          "name": "approved",
          "type": "bool"
        }
      ],
      "name": "ApprovalForAll",
      "type": "event"
    },
    {
      "anonymous": false,
      "inputs": [
        {
          "indexed": false,
          "internalType": "address",
          "name": "owner",
          "type": "address"
        },
        {
          "indexed": false,
          "internalType": "uint256",
          "name": "tokenId",
          "type": "uint256"
        },
        {
          "indexed": false,
          "internalType": "string",
          "name": "tokenURI",
          "type": "string"
        }
      ],
      "name": "Init",
      "type": "event"
    },
    {
      "anonymous": false,
      "inputs": [
        {
          "indexed": true,
          "internalType": "address",
          "name": "from",
          "type": "address"
        },
        {
          "indexed": true,
          "internalType": "address",
          "name": "to",
          "type": "address"
        },
        {
          "indexed": true,
          "internalType": "uint256",
          "name": "tokenId",
          "type": "uint256"
        }
      ],
      "name": "Transfer",
      "type": "event"
    },
    {
      "inputs": [
        {
          "internalType": "uint256",
          "name": "",
          "type": "uint256"
        }
      ],
      "name": "PemInfoArray",
      "outputs": [
        {
          "internalType": "uint256",
          "name": "id",
          "type": "uint256"
        },
        {
          "internalType": "uint256",
          "name": "likeNum",
          "type": "uint256"
        },
        {
          "internalType": "uint256",
          "name": "price",
          "type": "uint256"
        },
        {
          "internalType": "bool",
          "name": "onSale",
          "type": "bool"
        }
      ],
      "stateMutability": "view",
      "type": "function"
    },
    {
      "inputs": [
        {
          "internalType": "address",
          "name": "to",
          "type": "address"
        },
        {
          "internalType": "uint256",
          "name": "tokenId",
          "type": "uint256"
        }
      ],
      "name": "approve",
      "outputs": [],
      "stateMutability": "nonpayable",
      "type": "function"
    },
    {
      "inputs": [
        {
          "internalType": "address",
          "name": "owner",
          "type": "address"
        }
      ],
      "name": "balanceOf",
      "outputs": [
        {
          "internalType": "uint256",
          "name": "",
          "type": "uint256"
        }
      ],
      "stateMutability": "view",
      "type": "function"
    },
    {
      "inputs": [
        {
          "internalType": "uint256",
          "name": "",
          "type": "uint256"
        }
      ],
      "name": "createTimeArr",
      "outputs": [
        {
          "internalType": "uint256",
          "name": "",
          "type": "uint256"
        }
      ],
      "stateMutability": "view",
      "type": "function"
    },
    {
      "inputs": [],
      "name": "getAllInfo",
      "outputs": [
        {
          "components": [
            {
              "internalType": "uint256",
              "name": "id",
              "type": "uint256"
            },
            {
              "internalType": "string",
              "name": "tokenURI",
              "type": "string"
            },
            {
              "internalType": "uint256",
              "name": "timestamp",
              "type": "uint256"
            },
            {
              "internalType": "address",
              "name": "owner",
              "type": "address"
            },
            {
              "components": [
                {
                  "internalType": "uint256",
                  "name": "id",
                  "type": "uint256"
                },
                {
                  "internalType": "uint256",
                  "name": "likeNum",
                  "type": "uint256"
                },
                {
                  "internalType": "uint256",
                  "name": "price",
                  "type": "uint256"
                },
                {
                  "internalType": "bool",
                  "name": "onSale",
                  "type": "bool"
                }
              ],
              "internalType": "struct Pixegram.PemInfo",
              "name": "currentInfo",
              "type": "tuple"
            }
          ],
          "internalType": "struct Pixegram.totalInfo[]",
          "name": "",
          "type": "tuple[]"
        }
      ],
      "stateMutability": "view",
      "type": "function"
    },
    {
      "inputs": [
        {
          "internalType": "uint256",
          "name": "tokenId",
          "type": "uint256"
        }
      ],
      "name": "getApproved",
      "outputs": [
        {
          "internalType": "address",
          "name": "",
          "type": "address"
        }
      ],
      "stateMutability": "view",
      "type": "function"
    },
    {
      "inputs": [],
      "name": "getItemNum",
      "outputs": [
        {
          "internalType": "uint256",
          "name": "",
          "type": "uint256"
        }
      ],
      "stateMutability": "view",
      "type": "function"
    },
    {
      "inputs": [
        {
          "internalType": "uint256",
          "name": "tokenId",
          "type": "uint256"
        }
      ],
      "name": "getTargetInfo",
      "outputs": [
        {
          "components": [
            {
              "internalType": "uint256",
              "name": "id",
              "type": "uint256"
            },
            {
              "internalType": "string",
              "name": "tokenURI",
              "type": "string"
            },
            {
              "internalType": "uint256",
              "name": "timestamp",
              "type": "uint256"
            },
            {
              "internalType": "address",
              "name": "owner",
              "type": "address"
            },
            {
              "components": [
                {
                  "internalType": "uint256",
                  "name": "id",
                  "type": "uint256"
                },
                {
                  "internalType": "uint256",
                  "name": "likeNum",
                  "type": "uint256"
                },
                {
                  "internalType": "uint256",
                  "name": "price",
                  "type": "uint256"
                },
                {
                  "internalType": "bool",
                  "name": "onSale",
                  "type": "bool"
                }
              ],
              "internalType": "struct Pixegram.PemInfo",
              "name": "currentInfo",
              "type": "tuple"
            }
          ],
          "internalType": "struct Pixegram.totalInfo",
          "name": "",
          "type": "tuple"
        }
      ],
      "stateMutability": "view",
      "type": "function"
    },
    {
      "inputs": [
        {
          "internalType": "uint256",
          "name": "tokenId",
          "type": "uint256"
        },
        {
          "internalType": "uint256",
          "name": "price",
          "type": "uint256"
        }
      ],
      "name": "hitTheStore",
      "outputs": [
        {
          "internalType": "bool",
          "name": "",
          "type": "bool"
        }
      ],
      "stateMutability": "nonpayable",
      "type": "function"
    },
    {
      "inputs": [
        {
          "internalType": "string",
          "name": "tokenURI",
          "type": "string"
        }
      ],
      "name": "initNft",
      "outputs": [
        {
          "internalType": "uint256",
          "name": "",
          "type": "uint256"
        }
      ],
      "stateMutability": "nonpayable",
      "type": "function"
    },
    {
      "inputs": [
        {
          "internalType": "address",
          "name": "owner",
          "type": "address"
        },
        {
          "internalType": "address",
          "name": "operator",
          "type": "address"
        }
      ],
      "name": "isApprovedForAll",
      "outputs": [
        {
          "internalType": "bool",
          "name": "",
          "type": "bool"
        }
      ],
      "stateMutability": "view",
      "type": "function"
    },
    {
      "inputs": [
        {
          "internalType": "uint256",
          "name": "tokenId",
          "type": "uint256"
        }
      ],
      "name": "likePem",
      "outputs": [
        {
          "internalType": "uint256",
          "name": "",
          "type": "uint256"
        }
      ],
      "stateMutability": "nonpayable",
      "type": "function"
    },
    {
      "inputs": [],
      "name": "name",
      "outputs": [
        {
          "internalType": "string",
          "name": "",
          "type": "string"
        }
      ],
      "stateMutability": "view",
      "type": "function"
    },
    {
      "inputs": [
        {
          "internalType": "uint256",
          "name": "tokenId",
          "type": "uint256"
        }
      ],
      "name": "ownerOf",
      "outputs": [
        {
          "internalType": "address",
          "name": "",
          "type": "address"
        }
      ],
      "stateMutability": "view",
      "type": "function"
    },
    {
      "inputs": [
        {
          "internalType": "address",
          "name": "from",
          "type": "address"
        },
        {
          "internalType": "address",
          "name": "to",
          "type": "address"
        },
        {
          "internalType": "uint256",
          "name": "tokenId",
          "type": "uint256"
        }
      ],
      "name": "safeTransferFrom",
      "outputs": [],
      "stateMutability": "nonpayable",
      "type": "function"
    },
    {
      "inputs": [
        {
          "internalType": "address",
          "name": "from",
          "type": "address"
        },
        {
          "internalType": "address",
          "name": "to",
          "type": "address"
        },
        {
          "internalType": "uint256",
          "name": "tokenId",
          "type": "uint256"
        },
        {
          "internalType": "bytes",
          "name": "_data",
          "type": "bytes"
        }
      ],
      "name": "safeTransferFrom",
      "outputs": [],
      "stateMutability": "nonpayable",
      "type": "function"
    },
    {
      "inputs": [
        {
          "internalType": "address",
          "name": "operator",
          "type": "address"
        },
        {
          "internalType": "bool",
          "name": "approved",
          "type": "bool"
        }
      ],
      "name": "setApprovalForAll",
      "outputs": [],
      "stateMutability": "nonpayable",
      "type": "function"
    },
    {
      "inputs": [
        {
          "internalType": "bytes4",
          "name": "interfaceId",
          "type": "bytes4"
        }
      ],
      "name": "supportsInterface",
      "outputs": [
        {
          "internalType": "bool",
          "name": "",
          "type": "bool"
        }
      ],
      "stateMutability": "view",
      "type": "function"
    },
    {
      "inputs": [],
      "name": "symbol",
      "outputs": [
        {
          "internalType": "string",
          "name": "",
          "type": "string"
        }
      ],
      "stateMutability": "view",
      "type": "function"
    },
    {
      "inputs": [
        {
          "internalType": "uint256",
          "name": "tokenId",
          "type": "uint256"
        }
      ],
      "name": "takeDown",
      "outputs": [
        {
          "internalType": "bool",
          "name": "",
          "type": "bool"
        }
      ],
      "stateMutability": "nonpayable",
      "type": "function"
    },
    {
      "inputs": [
        {
          "internalType": "uint256",
          "name": "tokenId",
          "type": "uint256"
        }
      ],
      "name": "tokenURI",
      "outputs": [
        {
          "internalType": "string",
          "name": "",
          "type": "string"
        }
      ],
      "stateMutability": "view",
      "type": "function"
    },
    {
      "inputs": [
        {
          "internalType": "uint256",
          "name": "tokenId",
          "type": "uint256"
        },
        {
          "internalType": "address",
          "name": "to",
          "type": "address"
        }
      ],
      "name": "transfer",
      "outputs": [
        {
          "internalType": "bool",
          "name": "",
          "type": "bool"
        }
      ],
      "stateMutability": "nonpayable",
      "type": "function"
    },
    {
      "inputs": [
        {
          "internalType": "address",
          "name": "from",
          "type": "address"
        },
        {
          "internalType": "address",
          "name": "to",
          "type": "address"
        },
        {
          "internalType": "uint256",
          "name": "tokenId",
          "type": "uint256"
        }
      ],
      "name": "transferFrom",
      "outputs": [],
      "stateMutability": "nonpayable",
      "type": "function"
    }
  ],
  "bytecode": "0x60806040523480156200001157600080fd5b506040518060400160405280600881526020017f506978656772616d0000000000000000000000000000000000000000000000008152506040518060400160405280600381526020017f50454d0000000000000000000000000000000000000000000000000000000000815250816000908051906020019062000096929190620000b8565b508060019080519060200190620000af929190620000b8565b505050620001cd565b828054620000c69062000168565b90600052602060002090601f016020900481019282620000ea576000855562000136565b82601f106200010557805160ff191683800117855562000136565b8280016001018555821562000136579182015b828111156200013557825182559160200191906001019062000118565b5b50905062000145919062000149565b5090565b5b80821115620001645760008160009055506001016200014a565b5090565b600060028204905060018216806200018157607f821691505b602082108114156200019857620001976200019e565b5b50919050565b7f4e487b7100000000000000000000000000000000000000000000000000000000600052602260045260246000fd5b613aed80620001dd6000396000f3fe608060405234801561001057600080fd5b506004361061014d5760003560e01c806370a08231116100c3578063b7760c8f1161007c578063b7760c8f146103fc578063b88d4fde1461042c578063c87b56dd14610448578063d7278a8114610478578063e985e9c5146104ab578063ed5c5b64146104db5761014d565b806370a082311461031457806386e634501461034457806395d89b41146103745780639e8314da14610392578063a22cb465146103c2578063b18e15bd146103de5761014d565b806336fbd2f81161011557806336fbd2f81461020857806342842e0e1461023857806342ea1a9714610254578063564f6fc2146102845780636352211e146102b45780636b676096146102e45761014d565b806301ffc9a71461015257806306fdde0314610182578063081812fc146101a0578063095ea7b3146101d057806323b872dd146101ec575b600080fd5b61016c600480360381019061016791906125fb565b6104f9565b6040516101799190612dd1565b60405180910390f35b61018a6105db565b6040516101979190612dec565b60405180910390f35b6101ba60048036038101906101b5919061269e565b61066d565b6040516101c79190612d0a565b60405180910390f35b6101ea60048036038101906101e591906125bb565b6106f2565b005b610206600480360381019061020191906124a5565b61080a565b005b610222600480360381019061021d919061270b565b61086a565b60405161022f9190612dd1565b60405180910390f35b610252600480360381019061024d91906124a5565b6109ed565b005b61026e6004803603810190610269919061269e565b610a0d565b60405161027b9190613090565b60405180910390f35b61029e6004803603810190610299919061269e565b610a88565b6040516102ab9190613090565b60405180910390f35b6102ce60048036038101906102c9919061269e565b610aa0565b6040516102db9190612d0a565b60405180910390f35b6102fe60048036038101906102f99190612655565b610b52565b60405161030b9190613090565b60405180910390f35b61032e60048036038101906103299190612438565b610ba5565b60405161033b9190613090565b60405180910390f35b61035e6004803603810190610359919061269e565b610c5d565b60405161036b9190612dd1565b60405180910390f35b61037c610db5565b6040516103899190612dec565b60405180910390f35b6103ac60048036038101906103a7919061269e565b610e47565b6040516103b9919061306e565b60405180910390f35b6103dc60048036038101906103d7919061257b565b610f27565b005b6103e6610f3d565b6040516103f39190612daf565b60405180910390f35b610416600480360381019061041191906126cb565b6110c1565b6040516104239190612dd1565b60405180910390f35b610446600480360381019061044191906124f8565b611156565b005b610462600480360381019061045d919061269e565b6111b8565b60405161046f9190612dec565b60405180910390f35b610492600480360381019061048d919061269e565b61130a565b6040516104a294939291906130ab565b60405180910390f35b6104c560048036038101906104c09190612465565b611357565b6040516104d29190612dd1565b60405180910390f35b6104e36113eb565b6040516104f09190613090565b60405180910390f35b60007f80ac58cd000000000000000000000000000000000000000000000000000000007bffffffffffffffffffffffffffffffffffffffffffffffffffffffff1916827bffffffffffffffffffffffffffffffffffffffffffffffffffffffff191614806105c457507f5b5e139f000000000000000000000000000000000000000000000000000000007bffffffffffffffffffffffffffffffffffffffffffffffffffffffff1916827bffffffffffffffffffffffffffffffffffffffffffffffffffffffff1916145b806105d457506105d3826113fc565b5b9050919050565b6060600080546105ea90613375565b80601f016020809104026020016040519081016040528092919081815260200182805461061690613375565b80156106635780601f1061063857610100808354040283529160200191610663565b820191906000526020600020905b81548152906001019060200180831161064657829003601f168201915b5050505050905090565b600061067882611466565b6106b7576040517f08c379a00000000000000000000000000000000000000000000000000000000081526004016106ae90612fae565b60405180910390fd5b6004600083815260200190815260200160002060009054906101000a900473ffffffffffffffffffffffffffffffffffffffff169050919050565b60006106fd82610aa0565b90508073ffffffffffffffffffffffffffffffffffffffff168373ffffffffffffffffffffffffffffffffffffffff16141561076e576040517f08c379a000000000000000000000000000000000000000000000000000000000815260040161076590612fee565b60405180910390fd5b8073ffffffffffffffffffffffffffffffffffffffff1661078d6114d2565b73ffffffffffffffffffffffffffffffffffffffff1614806107bc57506107bb816107b66114d2565b611357565b5b6107fb576040517f08c379a00000000000000000000000000000000000000000000000000000000081526004016107f290612eee565b60405180910390fd5b61080583836114da565b505050565b61081b6108156114d2565b82611593565b61085a576040517f08c379a00000000000000000000000000000000000000000000000000000000081526004016108519061300e565b60405180910390fd5b610865838383611671565b505050565b600082600061087882610aa0565b90508073ffffffffffffffffffffffffffffffffffffffff163373ffffffffffffffffffffffffffffffffffffffff16146108e8576040517f08c379a00000000000000000000000000000000000000000000000000000000081526004016108df9061302e565b60405180910390fd5b60006001866108f7919061328b565b905060006008828154811061090f5761090e6134df565b5b906000526020600020906004020160030160009054906101000a900460ff1690506000151581151514610977576040517f08c379a000000000000000000000000000000000000000000000000000000000815260040161096e9061304e565b60405180910390fd5b856008838154811061098c5761098b6134df565b5b9060005260206000209060040201600201819055506001600883815481106109b7576109b66134df565b5b906000526020600020906004020160030160006101000a81548160ff021916908315150217905550600194505050505092915050565b610a0883838360405180602001604052806000815250611156565b505050565b600080600183610a1d919061328b565b905060088181548110610a3357610a326134df565b5b90600052602060002090600402016001016000815480929190610a55906133d8565b919050555060088181548110610a6e57610a6d6134df565b5b906000526020600020906004020160010154915050919050565b60096020528060005260406000206000915090505481565b6000806002600084815260200190815260200160002060009054906101000a900473ffffffffffffffffffffffffffffffffffffffff169050600073ffffffffffffffffffffffffffffffffffffffff168173ffffffffffffffffffffffffffffffffffffffff161415610b49576040517f08c379a0000000000000000000000000000000000000000000000000000000008152600401610b4090612f2e565b60405180910390fd5b80915050919050565b600080610b5f33846118d8565b90507f22a473a5f9a76e14a060a85b3c33a26764d6346752c002558f0c5fead98f7516338285604051610b9493929190612d71565b60405180910390a180915050919050565b60008073ffffffffffffffffffffffffffffffffffffffff168273ffffffffffffffffffffffffffffffffffffffff161415610c16576040517f08c379a0000000000000000000000000000000000000000000000000000000008152600401610c0d90612f0e565b60405180910390fd5b600360008373ffffffffffffffffffffffffffffffffffffffff1673ffffffffffffffffffffffffffffffffffffffff168152602001908152602001600020549050919050565b6000816000610c6b82610aa0565b90508073ffffffffffffffffffffffffffffffffffffffff163373ffffffffffffffffffffffffffffffffffffffff1614610cdb576040517f08c379a0000000000000000000000000000000000000000000000000000000008152600401610cd29061302e565b60405180910390fd5b6000600185610cea919061328b565b9050600060088281548110610d0257610d016134df565b5b906000526020600020906004020160030160009054906101000a900460ff1690506001151581151514610d6a576040517f08c379a0000000000000000000000000000000000000000000000000000000008152600401610d6190612e6e565b60405180910390fd5b600060088381548110610d8057610d7f6134df565b5b906000526020600020906004020160030160006101000a81548160ff0219169083151502179055506001945050505050919050565b606060018054610dc490613375565b80601f0160208091040260200160405190810160405280929190818152602001828054610df090613375565b8015610e3d5780601f10610e1257610100808354040283529160200191610e3d565b820191906000526020600020905b815481529060010190602001808311610e2057829003601f168201915b5050505050905090565b610e4f6121d7565b6040518060a00160405280838152602001610e69846111b8565b815260200160096000858152602001908152602001600020548152602001610e9084610aa0565b73ffffffffffffffffffffffffffffffffffffffff1681526020016008600185610eba919061328b565b81548110610ecb57610eca6134df565b5b90600052602060002090600402016040518060800160405290816000820154815260200160018201548152602001600282015481526020016003820160009054906101000a900460ff1615151515815250508152509050919050565b610f39610f326114d2565b83836119b9565b5050565b60606000610f4b6007611b26565b905060008167ffffffffffffffff811115610f6957610f6861350e565b5b604051908082528060200260200182016040528015610fa257816020015b610f8f6121d7565b815260200190600190039081610f875790505b50905060005b828110156110b8576000600182610fbf9190613204565b90506040518060a00160405280828152602001610fdb836111b8565b81526020016009600084815260200190815260200160002054815260200161100283610aa0565b73ffffffffffffffffffffffffffffffffffffffff16815260200160088481548110611031576110306134df565b5b90600052602060002090600402016040518060800160405290816000820154815260200160018201548152602001600282015481526020016003820160009054906101000a900460ff161515151581525050815250838381518110611099576110986134df565b5b60200260200101819052505080806110b0906133d8565b915050610fa8565b50809250505090565b60008260006110cf82610aa0565b90508073ffffffffffffffffffffffffffffffffffffffff163373ffffffffffffffffffffffffffffffffffffffff161461113f576040517f08c379a00000000000000000000000000000000000000000000000000000000081526004016111369061302e565b60405180910390fd5b61114a3385876109ed565b60019250505092915050565b6111676111616114d2565b83611593565b6111a6576040517f08c379a000000000000000000000000000000000000000000000000000000000815260040161119d9061300e565b60405180910390fd5b6111b284848484611b34565b50505050565b60606111c382611466565b611202576040517f08c379a00000000000000000000000000000000000000000000000000000000081526004016111f990612f8e565b60405180910390fd5b600060066000848152602001908152602001600020805461122290613375565b80601f016020809104026020016040519081016040528092919081815260200182805461124e90613375565b801561129b5780601f106112705761010080835404028352916020019161129b565b820191906000526020600020905b81548152906001019060200180831161127e57829003601f168201915b5050505050905060006112ac611b90565b90506000815114156112c2578192505050611305565b6000825111156112f75780826040516020016112df929190612ce6565b60405160208183030381529060405292505050611305565b61130084611ba7565b925050505b919050565b6008818154811061131a57600080fd5b90600052602060002090600402016000915090508060000154908060010154908060020154908060030160009054906101000a900460ff16905084565b6000600560008473ffffffffffffffffffffffffffffffffffffffff1673ffffffffffffffffffffffffffffffffffffffff16815260200190815260200160002060008373ffffffffffffffffffffffffffffffffffffffff1673ffffffffffffffffffffffffffffffffffffffff16815260200190815260200160002060009054906101000a900460ff16905092915050565b60006113f76007611b26565b905090565b60007f01ffc9a7000000000000000000000000000000000000000000000000000000007bffffffffffffffffffffffffffffffffffffffffffffffffffffffff1916827bffffffffffffffffffffffffffffffffffffffffffffffffffffffff1916149050919050565b60008073ffffffffffffffffffffffffffffffffffffffff166002600084815260200190815260200160002060009054906101000a900473ffffffffffffffffffffffffffffffffffffffff1673ffffffffffffffffffffffffffffffffffffffff1614159050919050565b600033905090565b816004600083815260200190815260200160002060006101000a81548173ffffffffffffffffffffffffffffffffffffffff021916908373ffffffffffffffffffffffffffffffffffffffff160217905550808273ffffffffffffffffffffffffffffffffffffffff1661154d83610aa0565b73ffffffffffffffffffffffffffffffffffffffff167f8c5be1e5ebec7d5bd14f71427d1e84f3dd0314c0f7b2291e5b200ac8c7c3b92560405160405180910390a45050565b600061159e82611466565b6115dd576040517f08c379a00000000000000000000000000000000000000000000000000000000081526004016115d490612ece565b60405180910390fd5b60006115e883610aa0565b90508073ffffffffffffffffffffffffffffffffffffffff168473ffffffffffffffffffffffffffffffffffffffff16148061162a57506116298185611357565b5b8061166857508373ffffffffffffffffffffffffffffffffffffffff166116508461066d565b73ffffffffffffffffffffffffffffffffffffffff16145b91505092915050565b8273ffffffffffffffffffffffffffffffffffffffff1661169182610aa0565b73ffffffffffffffffffffffffffffffffffffffff16146116e7576040517f08c379a00000000000000000000000000000000000000000000000000000000081526004016116de90612e2e565b60405180910390fd5b600073ffffffffffffffffffffffffffffffffffffffff168273ffffffffffffffffffffffffffffffffffffffff161415611757576040517f08c379a000000000000000000000000000000000000000000000000000000000815260040161174e90612e8e565b60405180910390fd5b611762838383611c4e565b61176d6000826114da565b6001600360008573ffffffffffffffffffffffffffffffffffffffff1673ffffffffffffffffffffffffffffffffffffffff16815260200190815260200160002060008282546117bd919061328b565b925050819055506001600360008473ffffffffffffffffffffffffffffffffffffffff1673ffffffffffffffffffffffffffffffffffffffff16815260200190815260200160002060008282546118149190613204565b92505081905550816002600083815260200190815260200160002060006101000a81548173ffffffffffffffffffffffffffffffffffffffff021916908373ffffffffffffffffffffffffffffffffffffffff160217905550808273ffffffffffffffffffffffffffffffffffffffff168473ffffffffffffffffffffffffffffffffffffffff167fddf252ad1be2c89b69c2b068fc378daa952ba7f163c4a11628f55a4df523b3ef60405160405180910390a46118d3838383611c53565b505050565b60006118e46007611c58565b60006118f06007611b26565b90506118fc8482611c6e565b6119068184611e48565b60086040518060800160405280838152602001600081526020016000815260200160001515815250908060018154018082558091505060019003906000526020600020906004020160009091909190915060008201518160000155602082015181600101556040820151816002015560608201518160030160006101000a81548160ff02191690831515021790555050504260096000838152602001908152602001600020819055508091505092915050565b8173ffffffffffffffffffffffffffffffffffffffff168373ffffffffffffffffffffffffffffffffffffffff161415611a28576040517f08c379a0000000000000000000000000000000000000000000000000000000008152600401611a1f90612eae565b60405180910390fd5b80600560008573ffffffffffffffffffffffffffffffffffffffff1673ffffffffffffffffffffffffffffffffffffffff16815260200190815260200160002060008473ffffffffffffffffffffffffffffffffffffffff1673ffffffffffffffffffffffffffffffffffffffff16815260200190815260200160002060006101000a81548160ff0219169083151502179055508173ffffffffffffffffffffffffffffffffffffffff168373ffffffffffffffffffffffffffffffffffffffff167f17307eab39ab6107e8899845ad3d59bd9653f200f220920489ca2b5937696c3183604051611b199190612dd1565b60405180910390a3505050565b600081600001549050919050565b611b3f848484611671565b611b4b84848484611ebc565b611b8a576040517f08c379a0000000000000000000000000000000000000000000000000000000008152600401611b8190612e0e565b60405180910390fd5b50505050565b606060405180602001604052806000815250905090565b6060611bb282611466565b611bf1576040517f08c379a0000000000000000000000000000000000000000000000000000000008152600401611be890612fce565b60405180910390fd5b6000611bfb611b90565b90506000815111611c1b5760405180602001604052806000815250611c46565b80611c2584612053565b604051602001611c36929190612ce6565b6040516020818303038152906040525b915050919050565b505050565b505050565b6001816000016000828254019250508190555050565b600073ffffffffffffffffffffffffffffffffffffffff168273ffffffffffffffffffffffffffffffffffffffff161415611cde576040517f08c379a0000000000000000000000000000000000000000000000000000000008152600401611cd590612f6e565b60405180910390fd5b611ce781611466565b15611d27576040517f08c379a0000000000000000000000000000000000000000000000000000000008152600401611d1e90612e4e565b60405180910390fd5b611d3360008383611c4e565b6001600360008473ffffffffffffffffffffffffffffffffffffffff1673ffffffffffffffffffffffffffffffffffffffff1681526020019081526020016000206000828254611d839190613204565b92505081905550816002600083815260200190815260200160002060006101000a81548173ffffffffffffffffffffffffffffffffffffffff021916908373ffffffffffffffffffffffffffffffffffffffff160217905550808273ffffffffffffffffffffffffffffffffffffffff16600073ffffffffffffffffffffffffffffffffffffffff167fddf252ad1be2c89b69c2b068fc378daa952ba7f163c4a11628f55a4df523b3ef60405160405180910390a4611e4460008383611c53565b5050565b611e5182611466565b611e90576040517f08c379a0000000000000000000000000000000000000000000000000000000008152600401611e8790612f4e565b60405180910390fd5b80600660008481526020019081526020016000209080519060200190611eb7929190612222565b505050565b6000611edd8473ffffffffffffffffffffffffffffffffffffffff166121b4565b15612046578373ffffffffffffffffffffffffffffffffffffffff1663150b7a02611f066114d2565b8786866040518563ffffffff1660e01b8152600401611f289493929190612d25565b602060405180830381600087803b158015611f4257600080fd5b505af1925050508015611f7357506040513d601f19601f82011682018060405250810190611f709190612628565b60015b611ff6573d8060008114611fa3576040519150601f19603f3d011682016040523d82523d6000602084013e611fa8565b606091505b50600081511415611fee576040517f08c379a0000000000000000000000000000000000000000000000000000000008152600401611fe590612e0e565b60405180910390fd5b805181602001fd5b63150b7a0260e01b7bffffffffffffffffffffffffffffffffffffffffffffffffffffffff1916817bffffffffffffffffffffffffffffffffffffffffffffffffffffffff19161491505061204b565b600190505b949350505050565b6060600082141561209b576040518060400160405280600181526020017f300000000000000000000000000000000000000000000000000000000000000081525090506121af565b600082905060005b600082146120cd5780806120b6906133d8565b915050600a826120c6919061325a565b91506120a3565b60008167ffffffffffffffff8111156120e9576120e861350e565b5b6040519080825280601f01601f19166020018201604052801561211b5781602001600182028036833780820191505090505b5090505b600085146121a857600182612134919061328b565b9150600a856121439190613421565b603061214f9190613204565b60f81b818381518110612165576121646134df565b5b60200101907effffffffffffffffffffffffffffffffffffffffffffffffffffffffffffff1916908160001a905350600a856121a1919061325a565b945061211f565b8093505050505b919050565b6000808273ffffffffffffffffffffffffffffffffffffffff163b119050919050565b6040518060a00160405280600081526020016060815260200160008152602001600073ffffffffffffffffffffffffffffffffffffffff16815260200161221c6122a8565b81525090565b82805461222e90613375565b90600052602060002090601f0160209004810192826122505760008555612297565b82601f1061226957805160ff1916838001178555612297565b82800160010185558215612297579182015b8281111561229657825182559160200191906001019061227b565b5b5090506122a491906122d2565b5090565b60405180608001604052806000815260200160008152602001600081526020016000151581525090565b5b808211156122eb5760008160009055506001016122d3565b5090565b60006123026122fd84613115565b6130f0565b90508281526020810184848401111561231e5761231d613542565b5b612329848285613333565b509392505050565b600061234461233f84613146565b6130f0565b9050828152602081018484840111156123605761235f613542565b5b61236b848285613333565b509392505050565b60008135905061238281613a5b565b92915050565b60008135905061239781613a72565b92915050565b6000813590506123ac81613a89565b92915050565b6000815190506123c181613a89565b92915050565b600082601f8301126123dc576123db61353d565b5b81356123ec8482602086016122ef565b91505092915050565b600082601f83011261240a5761240961353d565b5b813561241a848260208601612331565b91505092915050565b60008135905061243281613aa0565b92915050565b60006020828403121561244e5761244d61354c565b5b600061245c84828501612373565b91505092915050565b6000806040838503121561247c5761247b61354c565b5b600061248a85828601612373565b925050602061249b85828601612373565b9150509250929050565b6000806000606084860312156124be576124bd61354c565b5b60006124cc86828701612373565b93505060206124dd86828701612373565b92505060406124ee86828701612423565b9150509250925092565b600080600080608085870312156125125761251161354c565b5b600061252087828801612373565b945050602061253187828801612373565b935050604061254287828801612423565b925050606085013567ffffffffffffffff81111561256357612562613547565b5b61256f878288016123c7565b91505092959194509250565b600080604083850312156125925761259161354c565b5b60006125a085828601612373565b92505060206125b185828601612388565b9150509250929050565b600080604083850312156125d2576125d161354c565b5b60006125e085828601612373565b92505060206125f185828601612423565b9150509250929050565b6000602082840312156126115761261061354c565b5b600061261f8482850161239d565b91505092915050565b60006020828403121561263e5761263d61354c565b5b600061264c848285016123b2565b91505092915050565b60006020828403121561266b5761266a61354c565b5b600082013567ffffffffffffffff81111561268957612688613547565b5b612695848285016123f5565b91505092915050565b6000602082840312156126b4576126b361354c565b5b60006126c284828501612423565b91505092915050565b600080604083850312156126e2576126e161354c565b5b60006126f085828601612423565b925050602061270185828601612373565b9150509250929050565b600080604083850312156127225761272161354c565b5b600061273085828601612423565b925050602061274185828601612423565b9150509250929050565b60006127578383612bda565b905092915050565b612768816132bf565b82525050565b612777816132bf565b82525050565b600061278882613187565b61279281856131b5565b9350836020820285016127a485613177565b8060005b858110156127e057848403895281516127c1858261274b565b94506127cc836131a8565b925060208a019950506001810190506127a8565b50829750879550505050505092915050565b6127fb816132d1565b82525050565b61280a816132d1565b82525050565b600061281b82613192565b61282581856131c6565b9350612835818560208601613342565b61283e81613551565b840191505092915050565b60006128548261319d565b61285e81856131d7565b935061286e818560208601613342565b61287781613551565b840191505092915050565b600061288d8261319d565b61289781856131e8565b93506128a7818560208601613342565b6128b081613551565b840191505092915050565b60006128c68261319d565b6128d081856131f9565b93506128e0818560208601613342565b80840191505092915050565b60006128f96032836131e8565b915061290482613562565b604082019050919050565b600061291c6025836131e8565b9150612927826135b1565b604082019050919050565b600061293f601c836131e8565b915061294a82613600565b602082019050919050565b60006129626019836131e8565b915061296d82613629565b602082019050919050565b60006129856024836131e8565b915061299082613652565b604082019050919050565b60006129a86019836131e8565b91506129b3826136a1565b602082019050919050565b60006129cb602c836131e8565b91506129d6826136ca565b604082019050919050565b60006129ee6038836131e8565b91506129f982613719565b604082019050919050565b6000612a11602a836131e8565b9150612a1c82613768565b604082019050919050565b6000612a346029836131e8565b9150612a3f826137b7565b604082019050919050565b6000612a57602e836131e8565b9150612a6282613806565b604082019050919050565b6000612a7a6020836131e8565b9150612a8582613855565b602082019050919050565b6000612a9d6031836131e8565b9150612aa88261387e565b604082019050919050565b6000612ac0602c836131e8565b9150612acb826138cd565b604082019050919050565b6000612ae3602f836131e8565b9150612aee8261391c565b604082019050919050565b6000612b066021836131e8565b9150612b118261396b565b604082019050919050565b6000612b296031836131e8565b9150612b34826139ba565b604082019050919050565b6000612b4c600b836131e8565b9150612b5782613a09565b602082019050919050565b6000612b6f6015836131e8565b9150612b7a82613a32565b602082019050919050565b608082016000820151612b9b6000850182612cc8565b506020820151612bae6020850182612cc8565b506040820151612bc16040850182612cc8565b506060820151612bd460608501826127f2565b50505050565b600061010083016000830151612bf36000860182612cc8565b5060208301518482036020860152612c0b8282612849565b9150506040830151612c206040860182612cc8565b506060830151612c33606086018261275f565b506080830151612c466080860182612b85565b508091505092915050565b600061010083016000830151612c6a6000860182612cc8565b5060208301518482036020860152612c828282612849565b9150506040830151612c976040860182612cc8565b506060830151612caa606086018261275f565b506080830151612cbd6080860182612b85565b508091505092915050565b612cd181613329565b82525050565b612ce081613329565b82525050565b6000612cf282856128bb565b9150612cfe82846128bb565b91508190509392505050565b6000602082019050612d1f600083018461276e565b92915050565b6000608082019050612d3a600083018761276e565b612d47602083018661276e565b612d546040830185612cd7565b8181036060830152612d668184612810565b905095945050505050565b6000606082019050612d86600083018661276e565b612d936020830185612cd7565b8181036040830152612da58184612882565b9050949350505050565b60006020820190508181036000830152612dc9818461277d565b905092915050565b6000602082019050612de66000830184612801565b92915050565b60006020820190508181036000830152612e068184612882565b905092915050565b60006020820190508181036000830152612e27816128ec565b9050919050565b60006020820190508181036000830152612e478161290f565b9050919050565b60006020820190508181036000830152612e6781612932565b9050919050565b60006020820190508181036000830152612e8781612955565b9050919050565b60006020820190508181036000830152612ea781612978565b9050919050565b60006020820190508181036000830152612ec78161299b565b9050919050565b60006020820190508181036000830152612ee7816129be565b9050919050565b60006020820190508181036000830152612f07816129e1565b9050919050565b60006020820190508181036000830152612f2781612a04565b9050919050565b60006020820190508181036000830152612f4781612a27565b9050919050565b60006020820190508181036000830152612f6781612a4a565b9050919050565b60006020820190508181036000830152612f8781612a6d565b9050919050565b60006020820190508181036000830152612fa781612a90565b9050919050565b60006020820190508181036000830152612fc781612ab3565b9050919050565b60006020820190508181036000830152612fe781612ad6565b9050919050565b6000602082019050818103600083015261300781612af9565b9050919050565b6000602082019050818103600083015261302781612b1c565b9050919050565b6000602082019050818103600083015261304781612b3f565b9050919050565b6000602082019050818103600083015261306781612b62565b9050919050565b600060208201905081810360008301526130888184612c51565b905092915050565b60006020820190506130a56000830184612cd7565b92915050565b60006080820190506130c06000830187612cd7565b6130cd6020830186612cd7565b6130da6040830185612cd7565b6130e76060830184612801565b95945050505050565b60006130fa61310b565b905061310682826133a7565b919050565b6000604051905090565b600067ffffffffffffffff8211156131305761312f61350e565b5b61313982613551565b9050602081019050919050565b600067ffffffffffffffff8211156131615761316061350e565b5b61316a82613551565b9050602081019050919050565b6000819050602082019050919050565b600081519050919050565b600081519050919050565b600081519050919050565b6000602082019050919050565b600082825260208201905092915050565b600082825260208201905092915050565b600082825260208201905092915050565b600082825260208201905092915050565b600081905092915050565b600061320f82613329565b915061321a83613329565b9250827fffffffffffffffffffffffffffffffffffffffffffffffffffffffffffffffff0382111561324f5761324e613452565b5b828201905092915050565b600061326582613329565b915061327083613329565b9250826132805761327f613481565b5b828204905092915050565b600061329682613329565b91506132a183613329565b9250828210156132b4576132b3613452565b5b828203905092915050565b60006132ca82613309565b9050919050565b60008115159050919050565b60007fffffffff0000000000000000000000000000000000000000000000000000000082169050919050565b600073ffffffffffffffffffffffffffffffffffffffff82169050919050565b6000819050919050565b82818337600083830152505050565b60005b83811015613360578082015181840152602081019050613345565b8381111561336f576000848401525b50505050565b6000600282049050600182168061338d57607f821691505b602082108114156133a1576133a06134b0565b5b50919050565b6133b082613551565b810181811067ffffffffffffffff821117156133cf576133ce61350e565b5b80604052505050565b60006133e382613329565b91507fffffffffffffffffffffffffffffffffffffffffffffffffffffffffffffffff82141561341657613415613452565b5b600182019050919050565b600061342c82613329565b915061343783613329565b92508261344757613446613481565b5b828206905092915050565b7f4e487b7100000000000000000000000000000000000000000000000000000000600052601160045260246000fd5b7f4e487b7100000000000000000000000000000000000000000000000000000000600052601260045260246000fd5b7f4e487b7100000000000000000000000000000000000000000000000000000000600052602260045260246000fd5b7f4e487b7100000000000000000000000000000000000000000000000000000000600052603260045260246000fd5b7f4e487b7100000000000000000000000000000000000000000000000000000000600052604160045260246000fd5b600080fd5b600080fd5b600080fd5b600080fd5b6000601f19601f8301169050919050565b7f4552433732313a207472616e7366657220746f206e6f6e20455243373231526560008201527f63656976657220696d706c656d656e7465720000000000000000000000000000602082015250565b7f4552433732313a207472616e736665722066726f6d20696e636f72726563742060008201527f6f776e6572000000000000000000000000000000000000000000000000000000602082015250565b7f4552433732313a20746f6b656e20616c7265616479206d696e74656400000000600082015250565b7f416c7265616479206e6f74206f6e20746865206d61726b657400000000000000600082015250565b7f4552433732313a207472616e7366657220746f20746865207a65726f2061646460008201527f7265737300000000000000000000000000000000000000000000000000000000602082015250565b7f4552433732313a20617070726f766520746f2063616c6c657200000000000000600082015250565b7f4552433732313a206f70657261746f7220717565727920666f72206e6f6e657860008201527f697374656e7420746f6b656e0000000000000000000000000000000000000000602082015250565b7f4552433732313a20617070726f76652063616c6c6572206973206e6f74206f7760008201527f6e6572206e6f7220617070726f76656420666f7220616c6c0000000000000000602082015250565b7f4552433732313a2062616c616e636520717565727920666f7220746865207a6560008201527f726f206164647265737300000000000000000000000000000000000000000000602082015250565b7f4552433732313a206f776e657220717565727920666f72206e6f6e657869737460008201527f656e7420746f6b656e0000000000000000000000000000000000000000000000602082015250565b7f45524337323155524953746f726167653a2055524920736574206f66206e6f6e60008201527f6578697374656e7420746f6b656e000000000000000000000000000000000000602082015250565b7f4552433732313a206d696e7420746f20746865207a65726f2061646472657373600082015250565b7f45524337323155524953746f726167653a2055524920717565727920666f722060008201527f6e6f6e6578697374656e7420746f6b656e000000000000000000000000000000602082015250565b7f4552433732313a20617070726f76656420717565727920666f72206e6f6e657860008201527f697374656e7420746f6b656e0000000000000000000000000000000000000000602082015250565b7f4552433732314d657461646174613a2055524920717565727920666f72206e6f60008201527f6e6578697374656e7420746f6b656e0000000000000000000000000000000000602082015250565b7f4552433732313a20617070726f76616c20746f2063757272656e74206f776e6560008201527f7200000000000000000000000000000000000000000000000000000000000000602082015250565b7f4552433732313a207472616e736665722063616c6c6572206973206e6f74206f60008201527f776e6572206e6f7220617070726f766564000000000000000000000000000000602082015250565b7f57484f2041524520594f55000000000000000000000000000000000000000000600082015250565b7f416c7265616479206f6e20746865206d61726b65740000000000000000000000600082015250565b613a64816132bf565b8114613a6f57600080fd5b50565b613a7b816132d1565b8114613a8657600080fd5b50565b613a92816132dd565b8114613a9d57600080fd5b50565b613aa981613329565b8114613ab457600080fd5b5056fea2646970667358221220f841805f16de7a25e68c4135df6f8f3cca747082249cd1c15a82e2d0bf711b2b64736f6c63430008070033",
  "linkReferences": {},
  "deployedLinkReferences": {}
}